:020000041000EA
:1000000000B5324B212058609868022188439860DF
:10001000D860186158612E4B002199600221596106
:100020000121F02299502B49196001219960352056
:1000300000F044F80222904214D00621196600F024
:1000400034F8196E01211966002018661A6600F04E
:100050002CF8196E196E196E052000F02FF8012189
:100060000842F9D1002199601B49196000215960AB
:100070001A491B48016001219960EB211966A021F2
:10008000196600F012F800219960164914480160C1
:100090000121996001BC002800D000471248134993
:1000A000086003C880F30888084703B5996A0420EC
:1000B0000142FBD001200142F8D103BD02B5186610
:1000C0001866FFF7F2FF186E186E02BD00000240BE
:1000D000000000180000070000035F00212200005C
:1000E000F4000018222000A00001001008ED00E03C
:1000F00000000000000000000000000074B24E7A12
:1001000000200420F7010010C3010010C5010010F9
:10011000C1010010C1010010C1010010C101001097
:10012000C1010010C1010010C1010010C701001081
:10013000C1010010C1010010C9010010CB01001065
:10014000CD010010CD010010CD010010CD01001037
:10015000CD010010CD010010CD010010CD01001027
:10016000CD010010CD010010CD010010CD01001017
:10017000CD010010CD010010CD010010CD01001007
:10018000CD010010CD010010CD010010CD010010F7
:10019000CD010010CD010010CD010010CD010010E7
:1001A000CD010010CD010010CD010010CD010010D7
:1001B000CD010010CD010010CD010010CD010010C7
:1001C00000BE00BE00BE00BE00BE00BEEFF3058054
:1001D000103800BEF2EB887190120510B0120510B5
:1001E0003802001090A31AE71E481F49086006C88D
:1001F00081F3088810471D480068002801D019487D
:10020000F3E70DA40ECC002902D000F012F8F9E7B4
:100210001749184A002000E001C19142FCD116495B
:100220008847164988471649884700BEFDE701C937
:1002300001C29A42FBD37047B0120510E0000020C3
:10024000781A0020482C051000000420000004202B
:10025000482C0510001004200010042000000000AD
:10026000704700000000000008ED00E0000000D032
:10027000781A002084E30020553D01109D0C0010E9
:100280004D3D0110F8B5C0460448054B10B58342FA
:1002900003D0044B002B00D0984710BD781A0020E3
:1002A000781A00200000000006480749091A8B1040
:1002B000C90FC91810B5491003D0044B002B00D04A
:1002C000984710BD781A0020781A0020000000001E
:1002D00010B5074C2378002B09D1FFF7D5FF054B4C
:1002E000002B02D0044800E000BF0123237010BDA2
:1002F000501D002000000000FC740110054B10B5DB
:10030000002B03D00449054800E000BFFFF7CCFFF5
:1003100010BDC04600000000541D0020FC740110F8
:10032000F0B504001F0085B00A9B8D4D6360D308B3
:10033000D2B2C8B2DBB2294012020A431D045843AC
:100340002A4312023906120A0A43E0602260013091
:10035000002612F08BF9002800D1FDE0814B03AD9F
:100360000130A0602B802A00022339000A980096F1
:1003700016F0F4FA7C4B2A002B80E17802236068A7
:10038000009616F0EBFA794B2A002B80E1780223D5
:100390006068009616F0E2FA754B2A002B80E1782F
:1003A00002236068009616F0D9FA63782E70013B3C
:1003B0006B70E17802232A006068009616F0CEFA8E
:1003C0006C4B2A002B80E17802236068009616F0BF
:1003D000C5FA2E80E17802232A006068009616F0A4
:1003E000BDFA8023DB012B80E17802232A006068BC
:1003F000009616F0B3FA2E80E17802232A00606896
:10040000009616F0ABFA5C4B2A002B80E1780223B1
:100410006068009616F0A2FAA0235B012B80E178B9
:1004200002232A006068009616F098FA534B2A00BF
:100430002B80E17802236068009616F08FFA504B0B
:100440002A002B80E17802236068009616F086FA75
:100450004C4B2A002B80E17802236068009616F04E
:100460007DFA6378217812225B00994200DD71E009
:1004700000266A702E70E17802232A0060680096D8
:1004800016F06CFA404B2A002B80E178022360685A
:10049000009616F063FA3D4B2A002B800333E17877
:1004A0006068FF33009616F059FA394B2A002B800A
:1004B000E17802236068009616F050FA354B2A0066
:1004C0002B80E17802236068009616F047FA324BE1
:1004D0002A002B80E17802236068009616F03EFA2D
:1004E000C0239B012B80E17802232A0060680096DC
:1004F00016F034FA294B2A002B80E1780223606839
:10050000009616F02BFA264B2A002B80E178022366
:100510006068009616F022FA224B2A002B80E178C0
:1005200002236068009616F019FA80239B012B8045
:10053000E17802232A006068009616F00FFA2E80F8
:10054000E178606802232A00009616F007FA01207D
:1005500005B0F0BD103A8BE7A0603000F8E7C04668
:10056000FF00FFFF00AEFFFF00D5FFFF0080FFFF91
:1005700000A8FFFF00D3FFFF008DFFFF00A1FFFFDA
:1005800000C8FFFF00DAFFFF0081FFFF00FFFFFF51
:1005900000D9FFFF00F1FFFF00DBFFFF00A4FFFF1A
:1005A00000A6FFFF00AFFFFF030010B50021806829
:1005B000DA6812F089F810BD8423F0B50026040033
:1005C000002785B003AD9B012B80C1782A00022350
:1005D0004068009616F0C2F92E80E1782A00606823
:1005E0000223009616F0BAF923782F70013B6B7046
:1005F000E1782A0060680223009616F0AFF988239C
:100600009B012B80E1782A0060680223009616F097
:10061000A5F92E80E1782A0060680223009616F082
:100620009DF9A3782F70013B6B70E1782A00606818
:100630000223009616F092F94022A368013B1A703B
:10064000E368A268E17860680133013A009616F029
:1006500085F905B0F0BDC046F0B557469A46454607
:10066000DE464E4694465246E0B58DB09578169CCF
:1006700012785B7893462278070090460E00099125
:100680005D19002A00D131E1072291465A46200027
:100690005446029206933978AA198A4203D9029BDA
:1006A000099E9A46D444029A624492467A789245C8
:1006B00000D91BE1E178414500D90BE1227942459F
:1006C00000D207E1069B002B00D103E16346DB0863
:1006D0004A46079363461A4001239340DBB20893CE
:1006E0006346073303936346063305936346053336
:1006F0000493534683460A9300220B0006980B95F9
:10070000019464E00420604482467878824500D3F6
:10071000F3E05046C0084C46414350462040012477
:10072000844020004919BD686C5C20436854202136
:10073000194214D0397895198D4210D27878049CDA
:10074000844200D3E1E0E0084143484620400124D0
:10075000844020004919BD686C5C204368544021E6
:10076000194217D0397895198D4229D205988246B9
:100770007878824500D3D2E05046C0084C464143C9
:10078000504620400124844020004919BD686C5C1B
:1007900020436854DB0913D0397895198D420FD264
:1007A0007878039C84420BD2E3084B4349462140AE
:1007B00001248C402100B8685B19C55C2943C154F1
:1007C000019B01325878D2B290427DD9DB78414604
:1007D000CB1A434301998918C9184B790121194251
:1007E0000FD0397895198D4226D27878844500D378
:1007F00099E00798089C41434919BD68685C20430B
:100800006854990718D5397895198D4214D201206A
:10081000604482467878824500D38DE05046C00817
:100820004C46414350462040012484402000491951
:10083000BD686C5C20436854590718D53978951900
:100840008D4214D20220604482467878824500D3DB
:100850007AE05046C0084C464143504620400124AF
:10086000844020004919BD686C5C20436854190716
:1008700017D5397895198D4213D2032060448246EA
:100880007878824567D25046C0084C46414350466E
:1008900020400124844020004919BD686C5C20433D
:1008A00068541021194200D141E7397895198D42D9
:1008B00000D227E74021194200D16BE7019B0132AA
:1008C0005878D2B2904281D81C000A9B06909A4672
:1008D00058460B9D427876199046202A43D00A2A22
:1008E00046D001304246002A00D0D4E60DB0F0BC1C
:1008F000BB46B246A946A046F0BD20241C4200D10A
:100900002DE7049C844200D21DE740241C4200D104
:1009100040E706246444A246824500D22CE7DB0966
:1009200000D03EE74CE79C0700D485E701246444EF
:10093000A246824500D271E75C0798D50224644440
:10094000A246824500D284E71C07AAD5032464444A
:10095000A246824597D310241C4200D1E7E6042426
:100960006444A246D2E68378761998460230B9E705
:100970008378D4469846099E0230B3E710B5044CFC
:1009800082B000932300FFF767FE02B010BDC0469F
:100990000075011070B505000C00002A18D100295F
:1009A00016D00E4813F06CFB290020006C6004F098
:1009B00045FB20000A4904F045FB0A2220000949B2
:1009C00004F064FB2000084904F04AFB002070BDDD
:1009D000064813F055FB06204042F8E7F476011074
:1009E000F1090010910A0010090B0010E0760110C7
:1009F000F8B505000E00141E27D01189002904D176
:100A0000200003F099FB0020F8BD1D4A82581D48C4
:100A100013F0BEFB80222389D2001F1C934211D207
:100A20002900BFB23A0000232000093103F0A6FCE0
:100A30000022EB195A720123390030002B7203F0A7
:100A4000D7FFDDE7104B1F1CEAE7104813F018FB37
:100A500068680028D7D0002104F0F0FA00220021B5
:100A6000686804F013FB0021686804F0EBFA0021C9
:100A7000686804F0F5FA686804F024FF6C60C2E767
:100A80000C04000028770110FF0300000877011014
:100A900070B504001A4813F0F3FA606800250028C6
:100AA00016D0002104F0CAFA00220021606804F088
:100AB000EDFA0021606804F0C5FA0021606804F0D6
:100AC000CFFA606804F0FEFE051E0ED100236360BD
:100AD0002068002807D0002104F0B0FA206804F054
:100AE000F1FE00232360280070BD29000D25054874
:100AF00013F04EFB606804F01BFC6D42E6E7C04655
:100B0000487701105C7701100B0010B504000D331D
:100B100000D110BD174813F03BFB6068002816D0C9
:100B2000002104F08BFA00220021606804F0AEFA84
:100B30000021606804F086FA0021606804F090FAF1
:100B4000606804F0BFFE011E0DD1002363602068C1
:100B50000028DED0002104F071FA206804F0B2FE13
:100B600000232360D5E7044813F012FB606804F00B
:100B7000DFFBEAE77C7701105C770110822110B57A
:100B80000120C90011F084FD041E01D0200010BD19
:100B9000014813F075FAF9E79477011070B5040075
:100BA00040680025002816D0002104F047FA0022F2
:100BB0000021606804F06AFA0021606804F042FADB
:100BC0000021606804F04CFA606804F07BFE051EAA
:100BD0000ED1002363602068002807D0002104F0B4
:100BE0002DFA206804F06EFE00232360280070BDFB
:100BF00029000D25034813F0CBFA606804F098FB38
:100C00006D42E6E75C7701101D4B70B50500186872
:100C100004300BF0F1FD1B4B01001B4A180013F0D0
:100C2000B7FA2E2004F084FC041E23D00021164ABB
:100C300003F0ECFD00280FD10121200003F060FE3D
:100C4000286000280ED0290004F0F8F928680F4920
:100C500004F014FA012070BD0D480B4913F098FA06
:100C60000020F8E70B4813F00BFA200004F02AFEEE
:100C70000020F0E7084813F003FA0020EBE7C04635
:100C8000FCD10020B07701109210000095090010EF
:100C9000EC77011008780110D4770110F0B5CE463A
:100CA000474680B59DB013F09BF9002800D194E031
:100CB0000BF08CFF002800D086E00BF023FF4F489C
:100CC00013F0DEF94E494F484F4B504A0BF028FFC6
:100CD000051E00D085E04E4813F0D2F9FFF74EFF15
:100CE000041E74D0FFF790FF002800D17DE0494E2C
:100CF0004949300015F008FE0321042001F062FF8D
:100D00000321052001F05EFF2A000121042001F0EB
:100D100073FF2A000121052001F06EFF3C232022F1
:100D20008021009603A8FFF7FBFA002861D003A8F2
:100D3000FFF73AFC394B27009946394D0937FA201D
:100D4000800001F027FA2B000022002103A8FFF702
:100D500015FE03A8FFF730FC237A002BEFD03800F4
:100D6000002616F087F9B042E9D9002398465022B0
:100D7000002108A8079311F0A7FC5322B91907A86E
:100D800011F0A8FC07A9484613F002FA03A8FFF7E0
:100D90000BFC03A8FFF710FC0022002107AB03A8FF
:100DA000FFF7ECFD03A8FFF707FC43461D4823723D
:100DB00001F0F0F903A8FFF7F7FB3800533616F0FF
:100DC00059F9B042BBD9D0E7174813F059F90120BF
:100DD0001DB0C0BCB946B046F0BD144813F0D8F9F8
:100DE000F5E7134813F04CF9F1E72000FFF7D6FEC2
:100DF000EDE7104813F0CCF9E9E7C046547801104C
:100E00006C78011078780110307500000400400003
:100E1000A078011028120020801A0600E87801103E
:100E2000D0780110B80B0000387801101C78011040
:100E300084780110B478011010B507F067FE10BD7A
:100E4000F8B501230B72040007F094FE0500431C63
:100E50000BD1104B186859680F4B22689860D96005
:100E60001900200052699047F8BD01F03FFAFA22BC
:100E700006000F00002328000021920011F0A8FBBB
:100E80008023801979411B069942E5D3012003494B
:100E90004042E1E72879011010110020FFFFFF7F99
:100EA00070B5094D04002B78002B08D001230749A9
:100EB00020000B722368DB699847012070BD01F0A8
:100EC000FBFF01232B70F1E775E3002028110020C0
:100ED00010B50400036804499B6998472368200003
:100EE00002491B6A984710BD1011002028110020EC
:100EF000002070477047C04610B501F0F7F900298F
:100F000005D0FA220023920011F02EF810BDFA212C
:100F1000890010F0EBFFF9E783680830002B04D15B
:100F200007E018001B68002B03D09942F9D100207C
:100F300003E00023016001200B6070478368002BF1
:100F400008D0994202D107E0994206D018001B68E8
:100F5000002BF9D10020704708300B680360012096
:100F6000F9E7C04643680430002B04D107E01800BD
:100F70001B68002B03D09942F9D1002003E0002325
:100F8000016001200B6070474368002B08D0994234
:100F900002D107E0994206D018001B68002BF9D156
:100FA0000020704704300B6803600120F9E7C04659
:100FB000F0B54646D6464F4683688046C0B5002BFE
:100FC0002CD008234344994601F090F943469B688E
:100FD00004000D009C46002B20D01E0000234F462D
:100FE0009A46B268F36820002900801A99410029C6
:100FF00002DB14001D00BA4637003668002EF0D11F
:101000005346002B48D05246196840460B6813607F
:101010004B68984743469B68002BD5D143465C6894
:10102000002C35D00025237A002B28D021006368BE
:101030002572404698472468002CF4D143469B68AB
:101040009C46194B186859686346002B0FD06346BD
:101050001A689C68DD6894460B000200121BAB41C5
:10106000002B10DD634620002900002BEFD1434602
:1010700018615961E0BCBA46B146A846F0BD246883
:10108000002CD0D1DAE7002BDED1002AEAD1DBE751
:10109000054B18685968EAE743465C68002CC1D1E3
:1010A000014B18685968D2E7287901108023DB05C5
:1010B0001868000F7047C0460FB400B5084883B0E9
:1010C00012F0DEFF049B002B07D005A91800019148
:1010D00012F008FE034812F0D3FF012012F01AFEAE
:1010E000FC7801102009051070B50F4C0F4D104A07
:1010F00024184D41A900A00F0843A90F69400D4BCA
:10110000604011F065FA4A01C30E1343CA0E5840FD
:101110005140094B094A11F05BFA4A00C30F1343CF
:10112000CA0F5840514070BD157C4A7FB979379E2F
:10113000B9E5E41C6D4758BFBB49D094EB1131139E
:10114000F0B504684568060023002A00C64680689A
:10115000F16803430A4300B5134304D101F0C6F814
:1011600003000B43FAD02A06230A604027061343E4
:101170002A0A3A43070CBC4669404B4098466346EE
:101180000F041F43424003045A4043467B403260F1
:101190007360C20E4B011343C90E40010843B36094
:1011A000A10FAB000B43A20012196B41F060D901F3
:1011B000500E0843D201590E11430C0005004B0F8D
:1011C000C1001943E0000019694180BCB846F0BD78
:1011D000F0B5DE4657464E464546E0B5BC4991B0AF
:1011E00008910978002900D1E5E00CAB9846B94B8D
:1011F000B94C0293B94BBA4E05931022059940465B
:1012000011F068FAB74B06931B78DBB2079301F035
:101210006DF8FFF769FF0C9B4340089343465B68FA
:101220004B400993B04B9B69DB0433D5AF4BDA6B72
:10123000E0231340402B2DD0EFF305839A46AC4BAF
:101240002768994600239B463300564665689A46B0
:1012500038002900002E1AD001F052F8EFF3108266
:1012600072B64B461B68002BFBD0BFF35F8F236821
:10127000BB4212D0BFF35F8F4B465946196082F3D1
:1012800010882768656838002900002EE4D100F036
:1012900015FFE3E710F01EFDCEE76368AB42E9D12E
:1012A000914B1500DF6901F021F80A220023801814
:1012B00059410B0080215646020009068B4202D399
:1012C00001228C4B524201200CC432687368921880
:1012D0005B413840104300240092019330607360FA
:1012E000BFF35F8F824A146085F310880199FFF77E
:1012F000FBFE43469B68424658404346DB6890608D
:101300004B40D3607C4A029B94461B787B4ADB00AF
:101310006344986890424CD00021FFF7E5FE089B9B
:1013200043400C93099B4B40190043465960EFF32F
:10133000108572B66E4A1368002BFCD0BFF35F8F26
:10134000069B079A1B78934214D005980C9A036861
:1013500041685A4043465B680C9242464B4053609A
:1013600092688368C1685A404346DB684B404146F7
:101370008A60CB604046FFF7E3FE102206000C00B7
:101380000598414611F0A6F9069A13780133DBB2AD
:101390001370BFF35F8F0022554B1A6085F31088DE
:1013A0003000210011B0F0BCBB46B246A946A046B1
:1013B000F0BD9C60B0E7524D524CAC46206861686D
:1013C000514DA246A84600920193850D8F028602D8
:1013D0002F4334003D0024184D41A30E9946AB0124
:1013E00001934B46019A1A43A30100930192009C7A
:1013F000019D241A8D412000644608CC29000293E7
:101400000023A4460393029C039D00196941C4452F
:10141000DBD1544620606160FFF766FE0CAB984656
:101420000C9B4340029343465B680AA84B400593DC
:1014300000F02CF90A980B99FFF756FE43469B687B
:10144000434006934346DB684B400793264B9B691A
:10145000DB0400D4F4E0254BDA6BE0231340402B8F
:1014600000D1EDE0EFF3058300249A4600234025E8
:10147000009301941E4B2E0099465546C346164CC8
:101480000023B04627682E0065689A463800290078
:10149000002E1AD000F034FFEFF3108272B64B46E4
:1014A0001B68002BFBD0BFF35F8F2368BB422DD09E
:1014B000BFF35F8F4B465146196082F3108827684F
:1014C000656838002900002EE4D100F0F7FDE3E75D
:1014D0007FE3002072E30020481C0020D0000020A1
:1014E000C000002073E300200000064000800040A0
:1014F000300100D0FFFFFF7F00000340FFFFFF002F
:10150000001C0420C8000020002004206368AB42B7
:10151000CED1350046469046009A019B1000190036
:10152000801859414B4BDA69012313400343009360
:10153000019100F0DBFE0A220023801859410B00C4
:101540008021020009068B4202D30122424B524203
:1015500022606360012E5ED10098019935003F4EF4
:10156000474630607160D846BFF35F8F3C4B994669
:1015700000234A46136087F31088FFF7B5FD029BEE
:1015800043400C93059B4B4019005B46596000F0AB
:10159000ADFEFFF7A9FD069B434018005B4698602F
:1015A000079B4B4019005B46D960EFF3108772B67A
:1015B0004B461B68002BFBD0BFF35F8F089B1B784B
:1015C000002B31D1274BDA681F2A3CD05A691F2AD9
:1015D0003AD0DA691F2A39D05B6A03251F2B33D032
:1015E00010F078FBFF25FF231F4AED0013701F4BFF
:1015F00002929C46052365446B604046FFF7A0FDC0
:101600001B4B102218004146059311F063F801238B
:10161000089A13700CE0BFF35F8F00234A461360F3
:1016200088F31088013E2BE70F4B0293104B059374
:10163000BFF35F8F00220A4B1A6087F31088DCE546
:1016400010F048FB0EE70025EBB2CDE70225EBB228
:10165000CAE7C04600000640FFFFFF7FC000002031
:10166000300100D00000034072E300200800034076
:10167000D000002010B5FFF7ABFD10BD10B502483B
:1016800000F0E0F810BDC046F0E1002010B50822DF
:10169000014911F01FF810BDF0E1002030B54B1EDC
:1016A000012900D1A7E0664A11780D112C003034D1
:1016B0009F2900D9A2E00470012B00D1BEE00F21C8
:1016C000147821400C003034092900D998E0447086
:1016D000022B00D1B2E054782511290030319F2C23
:1016E00000D990E08170032B00D1A7E00F212140A9
:1016F0000C003034092900D987E0C470042B00D1D4
:101700009CE094782511290030319F2C00D97FE08E
:101710000171052B00D191E00F2121400C003034E4
:10172000092900D976E04471062B00D186E0D478EF
:101730002511290030319F2C00D96EE08171072BD3
:1017400000D17BE00F2121400C003034092966D8FC
:10175000C471082B00D171E01479251129003031B2
:101760009F2C5FD80172092B68D00F2121400C00FB
:101770003034092958D844720A2B5FD05479251186
:10178000290030319F2C52D881720B2B56D00F215B
:1017900021400C00303409294BD8C4720C2B4DD099
:1017A00094792511290030319F2C00D9073101731C
:1017B0000D2B43D00F2121400C003034092901D9D1
:1017C00037310C0044730E2B38D0D1790C11220024
:1017D00030329F2900D9073282730F2B2ED00F226F
:1017E0000A4011003731092A01D830321100C17383
:1017F000102B23D010300023037030BD07345AE77C
:1018000037310C0063E707316CE737310C0074E7C0
:1018100007317DE737310C0085E707318EE7373137
:101820000C0095E707319DE737310C00A3E707313E
:10183000AAE737310C00C4720C2BB1D1C018DAE71B
:10184000F0E1002030B5002589B004000922002114
:1018500001A8009510F038FF0922002105A8049581
:1018600010F032FF4B236A466846137004A90D221C
:1018700015F0A2FD152108222000694410F02AFF6E
:1018800009B030BDEFF3108072B6034A1368002B25
:10189000FCD0BFF35F8F70472C0100D0BFF35F8F88
:1018A0000022024B1A6080F3108870472C0100D090
:1018B00070B5EFF3108C72B60D4D2B68002BFCD079
:1018C000BFF35F8F0724CB08C618C05C01230C4010
:1018D000A3401C000440034207D118433070BFF3FB
:1018E0005F8F2C608CF3108870BD1000FFF7E4FB55
:1018F0002C0100D0F8B54746CE46884680B5EFF3B8
:10190000108C72B6214D2C68002CFCD0BFF35F8F79
:101910009A422CD8D4080727055D061901241740E0
:10192000BC402C421FD007210127894609E0D4087A
:10193000055D06194C4639001440A1400C002942AF
:1019400011D001329342F2D201204042BFF35F8FA7
:1019500000220E4B1A608CF3108800280FDBC0BCED
:10196000B946B046F8BD254310003570EEE7BFF329
:101970005F8F00232B608CF3108801204042434688
:10198000002BECD00898FFF797FBC0462C0100D045
:1019900030B5EFF3108C72B60A4C2368002BFCD0E4
:1019A000BFF35F8F072301220B409A40CD08435DB0
:1019B00093434355BFF35F8F002323608CF310885C
:1019C00030BDC0462C0100D0044A1078431CDBB265
:1019D000172B00D9102313707047C0463811002010
:1019E00010B5064B064C82B00100009318221F234D
:1019F0002000FFF77FFF02B010BDC0460C79011038
:101A00006C2500200021044B044ABFF35F8F02C302
:101A10009342FAD17047C046000100D0800100D047
:101A2000142310B50100188804331B88984710BD93
:101A3000162310B50100188802331B88984710BD83
:101A4000F8B54746CE4680B50F1E19D014239946E7
:101A5000043304000025012698464B461888434667
:101A600021681B88984701C4431E984101354042B4
:101A70000640AF42F1D13000C0BCB946B046F8BD17
:101A80000126F8E7142370B50400188804331B8876
:101A90000D000549984703000020002C01DB0130B0
:101AA000A04029009847C046554200000A4B1968DB
:101AB000EFF3108072B60A68002AFCD0BFF35F8F84
:101AC0001B68BFF35F8F00221A6080F3108840BF4D
:101AD000002000217047C04600E30020F0B5DE463C
:101AE00057464E464546E0B585B0EFF305820323E1
:101AF0001340B64A9900575801229A4088469346A7
:101B0000B34B1A60B34B02935B46B348436308235D
:101B1000FE5E002E35DABB881BB2002B00DBA8E08E
:101B2000BB79002B00D0E9E00823F85E00281EDB1B
:101B300043007A691B18DB00D3189D68DC686B1CB6
:101B400000D108E1A44801004144826A0B69AE1A41
:101B50009B1A9E4213D35A46036A1A420FD09E48DC
:101B600000F0BCFB8C4202DCCED18542CCD940BF18
:101B700005B0F0BCBB46B246A946A046F0BD0D611B
:101B8000EDE77A69730091469B19DB0099444B4657
:101B90009C68DD6800F0A2FB8D42BCDC00D1FEE059
:101BA000002D00DAE3E04B46029A1B69934200D114
:101BB000D5E04A465288494694460822B85E6246B5
:101BC0000004496910439847009001910099019AD7
:101BD0000B001000134300D1C9E013000A000028D5
:101BE00000DBE0E020002900801A99414B46986014
:101BF000D96000229A5E002A00DA8CE753009C1814
:101C00007D69E4002C190093A368E4689A468C422D
:101C100000DD80E702D1834200D97CE708239C469F
:101C2000BC443A8103976746009BB4463E000EE0F1
:101C30008C4200D1C5E01E000023F25E002A0BDBBF
:101C400053009C18E4002C19A768E468BA469B1856
:101C5000DB00EB188C42EBDD330066469C464B46BE
:101C60001A806346039F1E80BB881BB2002B00DADC
:101C700056E73A69EFF3108172B61368002BFCD077
:101C8000BFF35F8F0123BE885B42BB8036B23B69E6
:101C9000BFF35F8F00221A6081F31088002E00DAF4
:101CA0003EE73B0008333A0099467D6973009B1973
:101CB000DB00EB189968DC688C460820115E48460A
:101CC000002910DB009306E0A34240D00023F95E18
:101CD0003800002906DB4F007F18FF00EF19FB6872
:101CE000A342F1DD009B068000201E5E1980002EBD
:101CF000DCDA1700BB79002B00D115E70023BB719C
:101D00003D000823F95E08354B1C00D12FE77C69A4
:101D10000800A44603E035004B1C00D106E74B0049
:101D20005B180A006146DB00CE18C95E73881BB2DF
:101D3000002BF0DA01235B42DC17B360F4608242CF
:101D4000EAD029803B89100033803A81E4E7BB6800
:101D50006345BBD9C6E7631C00D0F3E6FFE64B46FC
:101D60005B699A461B6950469847002823D14B4629
:101D70001B883A693B81EFF3108372B61168002922
:101D8000FCD0BFF35F8F49467A880A803A697E802B
:101D9000BFF35F8F0021116083F31088BBE684429C
:101DA00000D8FDE6B7E60C4800F098FA009B019CCD
:101DB000C01861411AE753461A685B6800920193A4
:101DC00004E7824500D836E746E7C04610D2002037
:101DD0003C700540DD1A00100040054070B52E4CE7
:101DE0002569002D04D00A212C4800F08FFD70BD1C
:101DF0002B4E0321300000F067FAE660FFF7E4FDA8
:101E0000284B03229C46D02322701B061B6801210D
:101E10006370254B6044A3600F2380002061022083
:101E2000638063694942A180198002311986473174
:101E30001D83585218315A5275325C3999521832F2
:101E400001319952183201319952183201319952A7
:101E5000083518329D520231183299521832013128
:101E6000995218320131995218320131995218326F
:101E7000013199521832013199520C4B0C49DC60F6
:101E80000130356200F096FA0121032000F05AFA81
:101E9000084B1D60A7E7C0463C11002000E300206E
:101EA0000040054040000034FFFF100010D2002029
:101EB000DD1A001038600540004870473C110020D2
:101EC000F8B51F0008AB1B7804001600002B08D1E2
:101ED00000F00CFA32003B00121A8B41002B00DAA2
:101EE00053E02269EFF3108072B61368002BFCD028
:101EF000BFF35F8F0223E15E63694A005218D2008C
:101F00009B18002937DB1A8862802269BFF35F8F34
:101F10000025156080F31088069A9E60DF601A61C4
:101F2000079A5A615A8801325204520C101C002A36
:101F30001FD082B25880080410432669EFF310873F
:101F400072B63268002AFCD0BFF35F8FA2881A8075
:101F5000A1802369BFF35F8F00221A6087F3108886
:101F60000B4923788C4601329A40E36863441A6037
:101F7000F8BD0120DDE72369BFF35F8F00221A60FF
:101F800080F3108801204042F2E70020F0E7C046CD
:101F90003C20000070B501000469EFF3108C72B6AC
:101FA00020680028FCD0BFF35F8F02200D5E4C69D3
:101FB00068004019C0002418002D37DB20884880B5
:101FC0000869BFF35F8F002606608CF31088E3601A
:101FD00063880498013320615B0405985B0CA26060
:101FE00060611A1C002B1FD093B228046280184332
:101FF0000A69EFF3108C72B61368002BFCD0BFF3A4
:102000005F8F8B8823808D800B69BFF35F8F0022E9
:102010001A608CF310880B7801329A40CB6808491B
:102020008C4663441A6070BD0122DDE70B69BFF383
:102030005F8F00221A608CF3108801204042F2E783
:102040003C20000010B543890A1493421ADD530066
:102050009B184269DB00D3180469EFF3108C72B649
:102060002268002AFCD0BFF35F8F5A88090494B21B
:10207000090C8A4208D00369BFF35F8F00221A60FF
:102080008CF31088002010BD8022120214435C8063
:10209000012302698371BFF35F8F002111608CF30C
:1020A0001088044902788C469340C268012062443B
:1020B0001360E8E73C20000040787047F0B504006A
:1020C0000D0006267642F717C64636196F4100B551
:1020D00082B08F4214D811D000F008F932003B00D2
:1020E000121A8B41002B17DC002B47D0200029004F
:1020F00000F006F902B080BCB846F0BD8642EBD9CC
:102100000022002316001F0000F0F0F832003B0010
:10211000121A8B41002BE7DD00F0E8F832003B009B
:10212000121A8B41002B0ADB00230193154B32005E
:10213000009315483B00FFF72DFF0028D6DB002356
:102140009C46B046114A124E736A9F4204D8B16A47
:102150004145CBD29F42C9D11168EFF3108072B6CE
:102160000B68002BFCD0BFF35F8F1368BFF35F8F4A
:102170006146196080F3108820BFE5E7002AB5D0DA
:10218000CAE7C046AD1A00103C11002000E3002051
:102190000040054070B5060000F0A8F8FA220400DF
:1021A0000D00002330000021920010F011FA80236E
:1021B000001969411B06994202D30120024940429D
:1021C000FFF77CFF70BDC046FFFFFF7FF0B5CE4636
:1021D000474680B504000D0083B0EFF30587002F5C
:1021E0000DD0364A0020536A8B4203D3926A0130E5
:1021F000A24250D303B0C0BCB946B046F0BD304B8C
:102200009846DB689946434648461E7800F066F8D3
:102210000B00494602000436B600715820008E1AA1
:102220002900801A99418F4211DC0ED020BF234A29
:102230000020536AAB42DDD3926A0130A242D9D268
:10224000EB1A5A1E9341D8B2D4E78642EED900F079
:102250004DF822002B00121A8B41002B20DB0023AB
:102260000193184B2200009340462B00FFF792FE8B
:10227000011E15DD114B2E005A6A95421CD89B6A2F
:10228000A34217D34046FFF7DDFE0C4A0020536AF5
:102290009E42AFD8D0E75B1A5A1E9341D8B2A9E745
:1022A000064A0020536AAB42A4D3926A0120A2429C
:1022B000A0D2C5E79542E5D120BFE3E70040054045
:1022C0003C110020AD1A001010B5024A0248FFF779
:1022D000EFFA10BD30790110702500200300416A2B
:1022E0000A00986A596A8A42FAD17047034B596AC0
:1022F0000A00986A596A9142FAD170470040054035
:10230000064A536A9942FCD807D1044B02E05A6A44
:10231000914202D19A6A8242F9D370470040054047
:10232000054B064A1360064A136053609360D360FE
:1023300013615361936170478080808000E400E006
:1023400004E400E01F2318401E3B8340002905D011
:10235000C021044A4900535013607047802201494C
:102360008B50FAE700E100E001228240034B1B683A
:1023700013405A1E9341D8B27047C04600E100E0B6
:1023800001238340014A13607047C04600E200E029
:10239000064B10309B688000C358054A00209B1AEA
:1023A0002F229A424041C0B27047C04600ED00E083
:1023B0005411002070B50D00EFF3108672B60F4A6D
:1023C0001368002BFCD0BFF35F8F0D4B10309B6860
:1023D00084001B590B4A934203D09D4201D00FF059
:1023E00079FC074B9B681D51BFF35F8FBFF35F8F75
:1023F0000022024B1A6086F3108870BD240100D0C1
:1024000000ED00E0CD010010F0B557464E46DE4627
:102410004546E0B585B0060000911700EFF3108B3C
:1024200072B66A4A1368002BFCD0BFF35F8F002599
:10243000674B5D579A46002D00DA8BE06B00654CC8
:1024400001935B199B009846A146C1444B465246F6
:102450009B7910361370604BB6009B6899590B1B23
:102460002F2B33D95D4B994200D0ACE0019B424603
:102470009C465B4B6544AD0063535A4B0232A21835
:10248000043B9B1A1B05584A5B0D651913436B806F
:10249000564B0121AB80FF23AB71009BEF71AB600A
:1024A0004B460B4319004C4B9B689951BFF35F8F10
:1024B000BFF35F8F0022454B1A608BF3108805B085
:1024C000F0BCBB46B246A946A046F0BD01200A00BA
:1024D0008243D3798C46BB4231D8454613004449E8
:1024E0001B1B5B415943090D3D4B63533D4B02356B
:1024F0006519043B5B1B1B053B4D5B0D2B43AA463B
:102500004D466B800425AC465546E044131F4444B9
:102510001B1B1B055B0D1D434B46997100999D804C
:1025200099604946DF71334B01431360BBE75800A4
:10253000C01880002018C179B94211D902000623C1
:10254000D356002BF3DA0293131D9A462A4B6146A9
:10255000039319E00FF0BEFB002553465D576DE76E
:10256000908802934005131D9A46031561469C46C8
:102570004046D444634604302018181AE02300056E
:10258000400D1B021843039004235B429C46E14428
:1025900050464B461B1A1B055B0D9C46124B957112
:1025A00098466346404603439380019B5A19920024
:1025B000039BA418A380029B0E4AA371009B226078
:1025C000E771A3606FE70FF085FB4FE7240100D0B0
:1025D00078E300205411002000ED00E0CD01001050
:1025E00000A1FFFF8411002000E0FFFF01BDFFFFFD
:1025F000AAAA00000148804701BD0000F0B5DE46F0
:1026000057464E464546E0B50C0083B0EFF31088C0
:1026100072B6634A1368002BFCD0BFF35F8F614B27
:1026200061499A68030010339F00D55900938D4289
:1026300043D0A54254D05D4EAA1B2F2A3DD85C4BF7
:102640009C461B689A4601231A00994682405346CD
:1026500013401F2201934B46024093409A4680222A
:10266000634650469850BFF35F8FEFF305839B4658
:10267000002B37D0009B5B4501D00FF02BFB2A00CD
:102680004B469A439068844208D177E04B005B1830
:102690009B00F3189868844236D01A0006215156E0
:1026A0000029F3DA844255D0019B002B27D0C022A9
:1026B00051463F4B5200995019603A4B9B68DD518F
:1026C000BFF35F8FBFF35F8F0022354B1A6088F333
:1026D000108803B0F0BCBB46B246A946A046F0BD88
:1026E0000D00EAE72A004B469A4390688442D5D110
:1026F00006201056130000280ADA0D0032E080236D
:1027000051462B4AD150D8E706201856002822DB24
:1027100042001118890074188946A1689960E1790E
:10272000D971062161569971002925DBA488F11A17
:10273000640524154C440919E0240905490D2402B7
:102740002143998013181B4A9B001178F318997143
:102750001070A9E713005946002914D1FF31917177
:102760001549918013490A789A71144A9B1B5B4161
:102770005A43120D0A7097E71149E2E706201056F6
:1027800013000028C4DA0F4A0F49D21A083A50023F
:10279000400D014399800D4952080A43DA8083E7CE
:1027A000240100D000ED00E0CD0100105411002004
:1027B00000E100E078E3002001BDFFFFAAAA0000CD
:1027C00001BD00008E11002000F0FFFF00F8FFFFA8
:1027D00010B58308040003202040FF24054AC000F0
:1027E0009446844081409B0063441A68A2430A4394
:1027F0001A6010BD00E400E070B501240443EFF35B
:102800000581EFF3108C72B6214A1368002BFCD0BF
:10281000BFF35F8F1F4B05001F4AED1A6D416A43DE
:10282000120D1E4D8900AE6852B27658A6421CD0D9
:102830000621595691421CD012215956914222D05C
:102840001E215956914220D02A21595603249142E3
:1028500010D0134B19781A708171BFF35F8F00226B
:102860000B4B1A608CF3108870BDAB680D4C5C503C
:10287000EFE700246100091989005B18FF219971B5
:1028800009499980E5E70124F4E70224F2E7C0460C
:10289000240100D054110020AAAA000000ED00E09D
:1028A00078E30020CD01001001BDFFFF1F2110B50E
:1028B000091A0248FFF76CF810BDC04683E30020F8
:1028C00010B5084B084C82B001000093002205238C
:1028D0002000FFF70FF8002801DB1F23181A02B0B1
:1028E00010BDC0465479011083E3002070B5040088
:1028F0000E001500FFF768F80100200000F006F850
:10290000A680E580BFF35F8F70BDC046024B9C463A
:10291000614489000160704740000034F8B5134DF0
:10292000134E2C00FF27B5421ED22368002B0FD078
:10293000FFF74AF801002800FFF7E8FFA780BFF380
:102940005F8F0834B4420FD223682500002BEFD1EB
:10295000FFF73AF801002800FFF7D8FF2771BFF30F
:102960005F8F0834B442EFD3F8BDC046701A002020
:10297000781A002010B50400FFF726F801002000A7
:10298000FFF7C4FFFF232371BFF35F8F10BDC04665
:1029900010B50400FFF718F801002000FFF7B6FF9C
:1029A000FF23A380BFF35F8F10BDC04610B50400A6
:1029B0000120FFF715F8034BC3189B002360BFF3FA
:1029C0005F8F10BD40000034034B9C46614489007A
:1029D0000160BFF35F8F704740000034F8B5DE46FA
:1029E0004E4657464546E0B58B4605000A99180005
:1029F00016000FF07BFA0A9B6C001F02324B641921
:102A00009C46A4006444636881469F4200D9676085
:102A10002B1FDBB29846012B30D9C02380229B01AB
:102A2000E31812011A60294BAD0059599A46002942
:102A30001BD17301E026226853401E40802342468A
:102A40005B01E3181E60012A30D9802380229B019C
:102A5000E31812011A6053464A4667605A51F0BCA7
:102A6000BB46B246A946A046F8BD58690FF03EFAEB
:102A7000013043001B18033BFDD2DAE75B46012B14
:102A8000CBD1C02303229B01E3181A60023AA3684A
:102A90001A42FCD07301E0262268AD0053401E406C
:102AA00080230A4A5B019246E3181E605A46216859
:102AB000514003220A401A6001225B469A40A368F3
:102AC0001A42FCD0C1E7C0460080004078250020B3
:102AD000F0B546464F46D646C0B51F00344B4400BD
:102AE0009C462418A4006444636888461600FF2BA3
:102AF00002D880235B006360031FDBB29A46012B80
:102B000030D9C02380229B01E31812011A60294B9F
:102B100085005959994600291BD17301E026226886
:102B200053401E40802352465B01E3181E60012A79
:102B300030D9802380229B01E31812011A60802380
:102B40005B0063604B465F51E0BCBA46B146A846A5
:102B5000F0BD58690FF0CAF9013043001B18033B60
:102B6000FDD2DAE74346012BCBD1C02303229B01E0
:102B7000E3181A60023AA3681A42FCD07301E026F7
:102B80002268850053401E4080230A4A5B0191461B
:102B9000E3181E6042462168514003220A401A6031
:102BA000012342469340A2681342FCD0C1E7C046CD
:102BB0000080004078250020014B8000C0587047FD
:102BC00078250020094A83009A1810B5146840221D
:102BD000544080322240064CC000A44663441A6030
:102BE000044B9C466044416010BDC04604C0014097
:102BF00004D0014000400140074B8000C3181B680F
:102C0000C90092000A435A400C231340034A9446D9
:102C1000604403607047C04604C0014004D00140D6
:102C20008000002905D0064B9C46022360440360C7
:102C30007047044B9C46022360440360F8E7C0469B
:102C400004E0014004F00140D0231B061B6830B5AE
:102C50000500584243412F205B4283430E48EC0855
:102C60008446072028408000814020000B4D3C30E6
:102C700063448000A40041511B19002A05D0802222
:102C8000920194466344196030BDC022920194467B
:102C900063441960F8E7C0463041014000400140FC
:102CA000D023F0B5C6461B0698461B680C4F9B0008
:102CB0001600FA5804000D0000B5104209D1290091
:102CC00014430D203200FC50FFF79EFB80BCB84639
:102CD000F0BD0EF0FFFF43461B689B00FA58EEE77D
:102CE000DCE1002010B504000D20FFF787FCD023A5
:102CF0001B061B6802499B005A58A2435A5010BD3C
:102D0000DCE100200123D02283401206936293610C
:102D1000094A83009A1811684022514080320A40C3
:102D20000649C0008C4663441A60054B9C46052347
:102D3000604443607047C04604C0014004D0014075
:102D400000400140F8B5040020481D0017000E00A7
:102D50000FF0CCF8010038000FF0C8F8069B2904EA
:102D60001B0319432368002B1EDB194B194DE21876
:102D700053425A4180235B019C461203164B624426
:102D80001A60164B1A6017002B689F43FBD1144B37
:102D90002660E2182123A06013602368002BFCDA70
:102DA0000823E1601360F8BD3F2322681340B3425B
:102DB000DBD1A3681B051B0D8342D6D1EE22E3684D
:102DC000D20213408B42D0D1EDE7C046001BB700C2
:102DD0000040FDBF08C0004000E0004000F000409F
:102DE0000430000010B580241C4BE4051C60002852
:102DF0001AD001231A4C18431A4BDC611A4C444078
:102E00001C62596298628021144BC90519601748E9
:102E100017490860E021C9041960002A07D18022FF
:102E2000144B12061A6010BD0E4BD861EBE753012C
:102E30009B1A9B009A18802312015B049A4209D2C4
:102E400013000D490B60074B5A608022094BD205D5
:102E50001A60E8E7094B1A00F3E7C04600B00540E6
:102E6000D3C007B0008005402D3FF84FFCFF0100A4
:102E70000820014000A0054078380020FFFFFF0037
:102E80008023024A9B000B43D362704700800540B9
:102E9000AA23064A1B0113608D235B00D3600449FB
:102EA000044B19605368002BFCDA70470040024065
:102EB00000B0FA000060024010B501F0F9FB00F02C
:102EC00059FB00F015FD00F0B9FD05F067FE01F0BB
:102ED0007FFC00F085F905F0D3FD10BD40BA80B24B
:102EE0007047C04600BA7047F0B5C646584D04005A
:102EF0002B68884600B5002B03D02A7A824200D185
:102F00007CE0544E2701EB68002B02D02A7DA242C0
:102F10006AD0AB69002B03D02022AA5CA24259D010
:102F20006B6A002B03D02C22AA5CA2422CD03B1946
:102F30001B01F318DB7B002C35D0B27A022A68D053
:102F4000012C35D08D225200B25C022A00D172E0F1
:102F5000022C31D0404AB25C022A00D172E0032C2C
:102F60002AD1032B0DD83D4D9B00585906F010F97E
:102F700000223F193F01F719FB7B9B005A510423A4
:102F8000FB7380BCB846F0BD3819000110304146D3
:102F9000AA6A3018984700236B623B191B01F3188B
:102FA000DB7B002CC9D18D225200B25C022A3BD0BF
:102FB000294AB25C022A32D0294AB25C022AD0D114
:102FC000284AB25C9A42CCD104223B191B01F31867
:102FD000DA73D6E73819000110304146EA69301833
:102FE00098470023AB619BE7381900011030414638
:102FF0002A69301898470023EB608AE707013818E0
:10300000144E000110306A683018984700232B6076
:1030100079E7F27B9A42D7D0012C93D1C8E7124AC4
:10302000B25C9A42C8D1CFE72022FF32B25C9A420A
:1030300000D08FE7C8E72022FF32B25C9A4200D06E
:1030400086E7C1E7084AB25C9A4200D087E7BBE74F
:10305000C02F0020F82F00202A020000B02F0020EF
:103060003A0300003F0300002F020000564BF0B56A
:103070004546DE4657464E4698460301E0B59B4618
:103080001D1843462D015E19F37A070089B0012B04
:1030900000D996E04D4A9B00D4580192002C00D1F3
:1030A00085E010354544280013F0E4FFA0221230DB
:1030B00081B29200362000F0E3FE8146002869D0FC
:1030C00005AC0C22002120000FF0FEFA3089FFF73A
:1030D00005FF01232080A3700C22FF332100484606
:1030E000A38001F07FF93A4B0C269A464346013DF6
:1030F000029703936A786F1C3B0000242E2A07D1A5
:103100005AE05A780134E4B2591C2E2A49D00B00F7
:10311000002AF6D1DA1B92B290461D002200B218A6
:10312000524534DC22003100484601F015FA731C88
:103130009BB2A41942463900484601F08FF9A4B267
:103140002B78661CB6B2002BD4D1039B0022310031
:1031500048469846029F01F0FFF91E4B02340422B4
:10316000049304A9A3B2484601F078F93B00019901
:103170005B448C461B014344DA7ADB7B16499B0097
:103180009200585862443523494605F08FFF48465F
:1031900000F0D2FF09B0F0BCBB46B246A946A0463B
:1031A000F0BD5B1B9BB2984622000D00B7E70021E3
:1031B000FFF79AFEB472EDE700233D000022984627
:1031C000ADE70648FDF778FFF82F0020F02F00202C
:1031D000FEFF000000010001B02F002070790110F7
:1031E0007047C046012800D97047054B8000002970
:1031F00002D00A68C250F7E7024A1268C250F3E7E9
:10320000F02F002028920110F8B5DE4657464E46B2
:1032100045460223E0B5474E002534009B46002773
:10322000A37A022B39D030D8002B22D08D235B001B
:103230009846414B9946414B9A46FEF71BFAB37AA2
:1032400080B2022B41D04346F35C022B44D04B4664
:10325000F35C022B49D05346F35C022B4ED05B4605
:10326000A37201232081E772280023736773FFF79D
:10327000FDFE01351134EDB2FF34042DD0D1F0BC88
:10328000BB46B246A946A046F8BD032B4FD12368E2
:10329000002B13D10023A372EBE7237B013BDBB2AE
:1032A0002373002BE5D1637B0133DBB26373042B03
:1032B0002AD023732800FFF7D9FEDAE7013B236009
:1032C000002BD6D10023A372D3E733898342B4D035
:1032D0004346F35C022BBAD11733FF33F35A8342D0
:1032E000ABD04B46F35C022BB5D18A239B00F35A3B
:1032F0008342A2D05346F35C022BB0D1CE239B0075
:10330000F35A8342ABD198E7E37A002B08D10C4AF9
:103310005268002A04D001226373E2722273C9E763
:1033200000212800FFF7E0FD0023A372A1E7054874
:10333000FDF7C2FEF82F00202A0200003A03000029
:10334000F02F0020A47901100123F0B51E00002504
:103350000640184205D0002953DD057801392D02B9
:103360000130032213000340104251D1072957DDD9
:10337000072208390F0091430A00010004000831B8
:10338000891822689A189A429B415B42D218636856
:103390000834D3189342924152429B18A142F0D173
:1033A000F9084A1CD2008018C9001A04791A120CB4
:1033B0001B0C9B18012910DD02889B188A1E012A0C
:1033C00005DD44881B19052901DD81885B1851083A
:1033D0004C1C640049000019511A012904D10278DB
:1033E000FE318D431543ADB2ED182B0C2D042D0C81
:1033F0005B19180C1B041B0CC018002E02D180B2E4
:10340000F0BD0020030600041B0C000E1843F6E775
:10341000012903DD038802390230A7E70023DCE736
:103420001A00C5E7F8B557464E46DE464546E0B5B4
:1034300091460A9A8A4611681B680A04120C090C04
:1034400052181904090C52181B0C9B181A0C1B0457
:103450001B0CD3181F0C1B041B0C0400FF180028A6
:1034600025D000239B46FF33012698466589606876
:103470002900FFF769FFC019070C0004000C3F1872
:103480002E4209D05B46414673403A069B463B0AB2
:10349000120C0B401A4317002468002CE6D15B463F
:1034A000002B04D03A063F04120C3F0E174350463F
:1034B000FFF714FD04004846FFF710FD2318DB1941
:1034C0001A0C1B041B0CD318180C1B041B0CC01863
:1034D000C04380B2F0BCBB46B246A946A046F8BD88
:1034E00010B582B0049C0094FFF79CFF02B010BDA1
:1034F00010B5FFF729FFC04380B210BDF8B5CE4626
:103500004746040080B500282FD000239946FF339A
:10351000002701269846658960682900FFF714FF97
:10352000C019070C0004000C3F182E4209D04B466E
:10353000414673403A0699463B0A120C0B401A4327
:1035400017002468002CE6D14B46002B0AD0380621
:103550003B04000C1B0E1843C04380B2C0BCB946EC
:10356000B046F8BDF84380B2F8E70148F6E7C04638
:10357000FFFF00000322094BFA219343084A090187
:10358000136000221A71074A58181060012219604E
:103590000271054A5A50054A136070472BD2002029
:1035A00020D2002024D20020A00FA00F74380020C9
:1035B000F0B5D6464F464646C0B500285DD08307D5
:1035C00000D079E003003E4A083B12689A4200D9D5
:1035D0006CE03C490C300C68844267D319790029AF
:1035E00067D0FA2019885E88000181420BD8864294
:1035F00009D8981A80B2804690198246B04505D005
:103600000088404502D03048FDF756FD50188442EE
:1036100038D045884545F6D100251D712B4DAC4667
:103620002D689D4202D965462B601D009C4232D90F
:10363000834212D00779002F0FD184420DD0A842C7
:1036400030D00188FA2019800001814205D044461B
:10365000501844805E889019824653450DD05046DC
:103660000079002809D1AB4218D053461980FA23BB
:103670001B01994201D052185680E0BCBA46B146AF
:10368000A846F0BD00251D71104DAC462D68AB421B
:10369000C9D39C42CED80E48FDF70EFD6346504676
:1036A0001860E2E761461D000B60CAE70948FDF7B4
:1036B00003FD0948FDF700FD0848FDF7FDFCC04685
:1036C00020D2002024D200202C7A0110743800204F
:1036D000607A0110E8790110047A0110C4790110B0
:1036E000F0B5C646364ACB1C00B513400B2B3CD96F
:1036F000FA22120193423BD8994239D8314A1668CE
:10370000864254D8304A1268824250D90400083C9C
:103710002588A11B2A0089B2083A521A92B29A420D
:1037200048D31FD07719BC463F79002F22D1FA2207
:103730001201954241D0624617880A00234D083293
:103740009B182A689BB262452ED0F218002517807C
:1037500015715180FA212380128809018A4201D013
:10376000B218538080BCB846F0BD0C239942C5D92D
:103770000020F7E71F001437BFB2BA42F2D30A00A5
:1037800008329B18FA229BB298461201954214D037
:103790000E4FF2183B68934200D93A600027434627
:1037A000177115805180D5E7F2182A60CEE70848D6
:1037B000FDF782FC0748FDF77FFC0748FDF77CFC1E
:1037C000FCFF000020D2002024D20020743800200A
:1037D0007C7A0110947A0110B47A0110F0B5D646C3
:1037E0004F464646C0B500282FD03A4BC41C1C405B
:1037F0000B2C30D9FA231B019C4226D8A04224D896
:10380000354BFA229C461B6812019A46334B121B19
:103810001E6853469B1B98B21B0490461B0C934298
:1038200013D208277F4208E01588FB1A5B19A342D0
:1038300013D22B002800984507D9F21811790029D6
:10384000F2D0108803009845F7D80020E0BCBA46B3
:10385000B146A846F0BD0C24D0E71427B846A044D2
:1038600043451BD20123083413711D4B1868130004
:1038700092450ED01419A04225D3100008309207AB
:10388000E4D01848FDF718FC1B88F31819790029B3
:1038900001D09842F8D161460B60EBE7FA27083473
:1038A00003193F019BB2B946BB420FD0F7183971DB
:1038B00001213D8078801380117139884945D4D029
:1038C00071184B80D1E70848FDF7F6FB0748FDF774
:1038D000F3FBC046FCFF00007438002020D200201B
:1038E00024D20020F87A0110C87A0110B47A0110AD
:1038F00024230022F0B54746CE469046994603322F
:1039000004249446124E80B5124B134FB1444146E5
:1039100032683960614603338B43002C0BD0158825
:103920000021002200E0030001321960581919003B
:10393000A242F8DB3B600436B14504D03268976898
:1039400053685488E3E7C0BCB946B046F0BDC046F2
:10395000807B0110B4C90020DCD1002010B50828FC
:1039600012D80C4B8000C458FDF7C2FAA3681C683B
:10397000002C07D022681A60A30707D1FDF7BAFA16
:10398000200010BDFDF7B6FA0024F9E70248FDF764
:1039900093FBC046807B01103C7B011070B50C008E
:1039A00008280ED800290CD0084B8000C5588B077A
:1039B00008D1FDF79DFAAB681A6822601C60FDF71C
:1039C00099FA70BD0248FDF777FBC046807B011075
:1039D000607B01100C2040427047C04670B54368C0
:1039E00016000A6804000D0082B09A4201D102B0AC
:1039F00070BD3360300001A9019202F049F8300037
:103A000001A905F0F1FB01A9300000F031FE3923D6
:103A100029686160E25C343B1340052B05D0E36903
:103A2000002BE4D020009847E1E70029F7D01207E7
:103A3000F5D52000211D07F033FDF0E77047C046A3
:103A4000F0B54746CE4680B504000F009146984633
:103A500083B0002800D180E00B9B002B7DD0002993
:103A600000D18FE04B46002B00D188E04346002B6D
:103A700000D181E0474B00256361002239232000FB
:103A80006560A560E56025860021E25428300422A7
:103A90000EF01AFE0A9B404E63623C233278E561C9
:103AA0002562E2540C9B23613B68002B5BD0002114
:103AB000002000224B461B68984200D0A36043467A
:103AC0001B6899423CD1002A3DD020000B9B9847AF
:103AD000002842D1314B9C461F683C23E55CFF2DFA
:103AE00018D03C20002F1AD0BC424FD03B00FF2200
:103AF00007E01B68002B12D09C4247D0013A002AF5
:103B000017D0195CA942F4D10135EDB2FF2D13D0C5
:103B10002554E9E7E05400253C20002FE4D1FE2D98
:103B200032D00135EDB263462760200035701C604D
:103B300014E01B48FDF7C0FA002300252354D3E707
:103B4000E360002AC1D12000390001AAFFF746FF37
:103B500020000B9B98470028BCD0002003B0C0BCBD
:103B6000B946B046F0BD3900200001AAFFF736FF84
:103B70000122A068E1689DE70A4B98467AE7094B65
:103B8000994673E7074F6DE70025CCE70648FDF738
:103B900093FAC046D53900107BE30020FCD1002009
:103BA000247C011028920110107C0110F0B5040053
:103BB0000D0017001E0083B0002922D0002F23D053
:103BC000002E24D02B680022002B15D03B68A16862
:103BD0008B4200D0A3603368E1688B4203D1002A96
:103BE00004D003B0F0BDE360002AFAD16A46290090
:103BF0002000FFF7F3FEF4E76268002A09D10122F2
:103C0000E4E7164D002FDBD1144F002EDAD1134E0E
:103C1000D8E7684601A90193009201F039FF684690
:103C200001A905F0E1FA01A9684600F021FD392358
:103C30002A686260E15C343B0B40052B07D1002A07
:103C400005D0090703D52000211D07F029FCE369F1
:103C5000002BD4D0200098470122B7E7289201100A
:103C600070B5041E16D04368002B17D139220121EC
:103C7000A35C194224D11D4B1A68A2422ED01C4AC3
:103C80001368A34204D126E01A68A24203D01300AD
:103C9000002BF9D170BD22681A60FBE7051D0021D9
:103CA000280001F0F5FE0021280005F09DFA002112
:103CB000280000F0DDFC39220121A35C1942DAD092
:103CC00018008843A0541B070BD4E369002BD2D003
:103CD00020009847CFE723681360DBE700221A60D3
:103CE000CDE7200007F03AF8EFE7C046F8D1002012
:103CF000FCD10020014B18607047C046F8D100206D
:103D000070B5041E15D03925435DDA0711D40122A0
:103D10001343DBB24355C269002A01D09047635D6B
:103D200005221A40052A04D16268002A01D01B0727
:103D300000D470BD2000211D07F0B2FBF9E7C0469A
:103D400070B5041E03D03925435D5A0700D570BDF8
:103D500004221343435506F043F90523625D1340E3
:103D6000052B05D0236A002BF1D020009847EEE701
:103D70006368002BF6D01207F4D52000211D07F050
:103D80008FFBEFE710B500280AD039220421835CAD
:103D9000194205D08B438354036A002B00D0984707
:103DA00010BDC046021E0ED0084B1868002809D06E
:103DB0003C2102E00068002804D0435C0133DBB200
:103DC0009342F7D170470020FCE7C046FCD10020A9
:103DD000F8B505000026002826D00F270BE0012BA0
:103DE00024D0002B2AD12800FFF7E2FB0136F6B2DF
:103DF000002C19D02500FDF77BF8AC7B002C1AD0E5
:103E0000013CE4B2AC73FDF775F8002C0CD12B7BB0
:103E10002C683B40022BE2D1290008200136FFF735
:103E2000BDFDF6B2002CE5D13000F8BD2900072019
:103E3000FFF7B4FDDAE70348FDF73EF90248FDF766
:103E40003BF9C046547C01106C7C011010B5FDF7A5
:103E50004FF80022084B1A70FDF74CF8074B186812
:103E6000002803D107E0C068002804D0436F002B6E
:103E7000F9D001F05BFE10BD7DE300201CE30020C3
:103E80000023F0B54F4699460B040B43D6464646F1
:103E90009846C123C0B582460D00170004005B00A0
:103EA0009A423FD008D81400433BFF3B9C43012C6F
:103EB0006AD03D48FDF700F9A0239B009A42F8D153
:103EC0000300032403330335A343A5435B199BB2CB
:103ED0001800103080B2AB421DD385421BD8FFF7CB
:103EE0007DFC061E18D04B4603605346C718434658
:103EF000133783602D4BA7434760C3600CE0FCF78A
:103F0000F7FF01222A4B1A70FCF7F4FF002E02D0B3
:103F10003000FFF75DFF00263000E0BCBA46B14636
:103F2000A846F0BD00239846224B00269A4600235F
:103F30000327994607E04246ED1AADB21060002D06
:103F4000EAD0804600240820FFF708FD0028D6D0DC
:103F50005246E31CBB43D31A1A1C9BB2AB4200D996
:103F60002A1C4946041993B213344281124ABC43B5
:103F7000016044600581C260002EDCD1ED1AADB253
:103F80000600002DDDD1C7E70720FFF7E7FC061E7E
:103F9000C2D04B4603604360434683604B46077381
:103FA0004373C481B8E7C046807C011080000100E3
:103FB0007DE30020EC0500008200010070B5041EC6
:103FC00033D002898A421BD98A1A07E0C91A238989
:103FD00089B29B1823812468002C20D063898B42EE
:103FE000F4D3227B0D040D43120701D18B4208D17B
:103FF0002068A560002801D0FFF7EAFE00232360B7
:1040000070BD636820001B1BC91889B2FFF768FBED
:10401000002807D08442EBD00548FDF74DF805484D
:10402000FDF74AF80448FDF747F80448FDF744F85F
:10403000E87C0110B47C0110CC7C01109C7C011048
:10404000030070B500281ED080225202914218D27F
:10405000002914D002898CB2A21892B2944210D8CE
:10406000057B01207F2D0BD95D68691A1D00103575
:10407000A94205D3596059891A8164185C810020CE
:1040800070BD0120FCE70148FDF716F8047D011022
:1040900010B5002815D080235B0299420FD2002969
:1040A0000BD043898AB29A4209D89B1A446843814B
:1040B000038961189B1A41600381002010BD012013
:1040C000FCE70148FCF7F8FF047D011010B500295A
:1040D00015DB00282BD000290FD003898AB2D31812
:1040E0009BB29A4221D8047B7F2C18D84468611A6D
:1040F00041604189038152184281002010BD00288F
:1041000015D0494243898CB29C420ED81B1B426891
:104110004381038952181B1B42600381EDE7446809
:10412000611A04001034A142E2D20120E6E70148FE
:10413000FCF7C2FF047D011010B5002802D0FFF784
:1041400047FE10BD0148FCF7B7FFC046047D0110D3
:1041500003000020002B04D01B68013080B2002B2C
:10416000FAD1704710B5041E09D0FCF7C1FEA37B3D
:104170000133A373FCF7BEFEA37B002B00D010BD60
:104180000148FCF799FFC046107D011010B50028CA
:1041900016D0002914D00268002A01D111E01A00BB
:1041A00003890C891B19038113681000002BF6D1B9
:1041B00010895389834206D1088911601B18138125
:1041C00010BD0200F4E70148FCF776FF247D0110E2
:1041D00010B50C0000281FD000291CD00368002B4C
:1041E00007D0028921895218028118001B68002B10
:1041F000F7D102894389934211D1228904609B1827
:104200000381FCF775FEA37B0133A373FCF772FEF9
:10421000A37B002B06D010BD0029FCD0F1E703489A
:10422000FCF74AFF0248FCF747FFC046247D011017
:10423000107D0110F8B54746CE46804680B50D008A
:1042400091461F00002900D17EE00B89934200D2E5
:104250007AE0002800D177E04B460289FB189A42A9
:1042600000DA71E0002644896B89E41B9B1B9C42A9
:1042700000D91C004C4500D94C4643466968586833
:104280002200C01989190EF025FA4B463F1936193C
:104290001C1BA3B2994643465C89BC4257D36B8929
:1042A000B34257D303D12D680026002D2FD0BC4236
:1042B0000FD06A892B899A4223D043461B89A34297
:1042C00017D04B46002BCFD10020C0BCB946B0461A
:1042D000F8BD43461B689846002B25D06A892B8978
:1042E0009A420DD043465C8943461B890027A3426E
:1042F000E7D143461B68002BE3D006204042E4E7A9
:1043000000272B68002BF8D143465C89D5E74B4644
:10431000002B19D1BC42D0D143461B689846002BD4
:10432000D2D037005C89C8E74B46002B0CD16A8994
:104330002B8900209A42C8D12B6806305A4253413B
:104340005B4218400638C0E710204042BDE70348F2
:10435000FCF7B2FE0248FCF7AFFEC046547D0110E8
:104360006C7D011010B5002904D000230A89FFF7E5
:1043700061FF10BD10204042FBE7C046F0B5C646C5
:10438000050088461700002600B5002826D0002921
:1043900024D0002F05D121E02D681B1B9BB2002DDE
:1043A0001CD06C89002B01D0A342F5D2E41A221C48
:1043B000A4B2BC4200D93A1C94B2424669683F1B81
:1043C0009019C9182200A619BFB20EF083F9B6B22F
:1043D0002D68002F02D00023002DE2D1300080BCD8
:1043E000B846F0BDF8B5CE4647460500884691462A
:1043F00080B5002824D0002922D0038993421CD301
:1044000016000027002A02D112E0002D1BD06C8973
:10441000B44200D9340043466868D91922000EF02E
:1044200059F9361B2D683F19002EEED1B9450DD133
:104430000020C0BCB946B046F8BD01204042F8E7B4
:1044400010204042F5E70348FCF736FE0248FCF72F
:1044500033FEC046887D0110A07D0110F0B5D64620
:104460004F46464604008A46C0B5002805D145E0BF
:1044700024685B1B9BB2002C40D06589AB42F7D20D
:1044800021899F18B94239DB9D4240D9E91A8A42F5
:104490002EDD60688AB2C01851467F1B90460EF030
:1044A00019F9BBB29946002B1CD02568002D2BD0E2
:1044B0002B894B4522D34F46002601E0002D20D00A
:1044C0006C89BC4200D93C004346991968682200B7
:1044D00051440EF0FFF83F1B2D683619002FEDD127
:1044E000B14517D10020E0BCBA46B146A846F0BDA0
:1044F00060685146C0180EF0EDF8F3E70120404225
:10450000F1E70648FCF7D8FD10204042EBE70448ED
:10451000FCF7D2FD0348FCF7CFFDC046887D0110B3
:10452000B87D0110A07D01100B0070B51500118938
:104530001A00FFF7A5FC041E06D0002329002A89D3
:10454000FFF778FE002801D1200070BD0148FCF77C
:10455000B3FDC046D07D011005E043898B4205D8EC
:10456000C91A006889B20028F7D1704743685A54C5
:10457000FBE7C046F0B557464546DE464E46814607
:10458000E0B5374F83B03968786908F017F94B46C2
:104590005968344B80469A461C6800234D7A9C46E5
:1045A000002C3CD001339B4653460026019304E087
:1045B000E3682600002B32D01C00237CAB42F7D1ED
:1045C000227A002A06D03C237868C35C0133DBB230
:1045D0009A42EDD14346002B29D02368002BE7D126
:1045E0005A46637C1A4203D062683B699A42DFD123
:1045F00063699A46002BDBD000914A462100A069EE
:10460000194BD047002819D14B465968009B994255
:1046100022D102239C46E3682600002BCCD16046C1
:1046200003B0F0BCBB46B246A946A046F0BD236825
:10463000002BD5D07A699342BAD1D1E7019B9A4633
:10464000002E06D0E368F36053461B68E3605346D0
:104650001C6001239C46E2E70448FCF72DFDC046A0
:1046600058380020E4E1002068380020E47D011083
:1046700010B5002811D00268002A0ED000290CD0F5
:104680000B68002B09D0094B1B68002B05D01C6858
:10469000944203D0DB68002BF9D110BD0A681A6080
:1046A000DB68002BF9D00268F1E7C046E4E10020A6
:1046B0007047C04610B5041E22D0037D042B05D0E0
:1046C000072B0CD0032B01D0002007E0200003F0C3
:1046D0007BFA0523002807D0431C0BD010BD03F044
:1046E00073FA0028F8D109232000237503F07CFD1C
:1046F0000020F3E70822638B002013436383EDE778
:104700000148FCF7D9FCC046307E011070B50600A8
:10471000806F002803D0FFF70FFD0023B367746F8D
:10472000002C18D06068256800280CD0FFF704FD25
:1047300021000420FFF732F9002D0AD02C00606818
:1047400025680028F2D121000420FFF727F9002D69
:10475000F4D1002373670123F46E5B423386002C8F
:1047600016D06068256800280CD0FFF7E5FC210012
:104770000420FFF713F9002D0AD02C00606825688B
:104780000028F2D121000420FFF708F9002DF4D110
:10479000346F002C16D06068256800280CD0FFF715
:1047A000CBFC21000420FFF7F9F8002D0AD02C00E3
:1047B000606825680028F2D121000420FFF7EEF898
:1047C000002DF4D100236822F3663367B35270BD25
:1047D00010B5FCF74FFF044A80049446034B800C4D
:1047E0006044188010BDC04600C0FFFFA01100202B
:1047F00010B5037D0100012B03D00220FFF7CEF896
:1048000010BD0148FCF758FC3C7E0110F8B5CE46BF
:10481000474680B5002961D0002864D0037D002B75
:104820005ED1002A2BD0314E3700103733681B6819
:10483000002B03D113E0DB68002B10D0DC8A9442FC
:10484000F9D11C68002C04D00D68002D01D0AC42B9
:10485000F1D108204042C0BCB946B046F8BD04368C
:10486000B742E3D10B68002B00D00360204BC2821B
:104870001A681860C26004F0C5F80020EBE71D4B11
:10488000802698461A881C4B184F9C461023994640
:10489000F601B944013292B2624514D03D002B6852
:1048A0001B68002B03D111E0DB68002B0ED0DC8AE3
:1048B0009442F9D1013EB6B2002EEBD143461A80A4
:1048C00002204042C7E7C0221202E7E704354D4507
:1048D000E5D143461A80002AC4D1F1E707499BE796
:1048E00006204042B7E710204042B4E7848201101E
:1048F00020E30020A0110020FFFF000028920110FB
:1049000070B5041E33D0037D002B30D10320FFF798
:1049100025F8051E2BD0012223690361E38A027565
:10492000C382627D4275A268826022680260002BA9
:104930000CD0154A13689C4204D11FE0DA689442F7
:1049400017D01300002BF9D10023E360237D012B46
:1049500017D021000220FFF721F80C4BAB610C4B64
:104960001A681D60EA6004F04DF8280070BD00254B
:10497000FBE7E268DA600023E360E7E7E3681360DF
:10498000E2E70448FCF798FB20E300203D530010C9
:1049900028E300203C7E0110F8B5031E1BD0048DD7
:1049A000C16A466A5D8E0F4F601A80192A1CBD428B
:1049B0000CD892B2821A07D5891B09D480225202E0
:1049C00091420BD200208CB25C85F8BD3A1CF0E716
:1049D00000240020F8E70448FCF76EFB0348FCF7CE
:1049E0006BFBC046D0160000507E0110747E011093
:1049F000F8B500281DD0037D012B34D0048D1D4A4D
:104A000061188BB293421BD91300466A458E1A4F28
:104A1000C46A0385B218291CBD420BD889B2091992
:104A2000511A11D5A41B1BD480235B029C421DD2BA
:104A30004485F8BD391C89B20919511AF2D403E032
:104A40009C42E1D81A00E0E743850C4B121B9A42C6
:104A5000EFD90222438B1343438303F0C5FBE8E7FE
:104A600000234385E5E70648FCF726FB0548FCF7ED
:104A700023FBC046A02D0000D0160000670B0000ED
:104A8000907E0110747E0110F0B5DE465746454613
:104A90004E46E0B5B64D89B02B6801332B60B54B5F
:104AA0009B465A461B78049201331370B24B9A46C8
:104AB000D346B24B05935B461C68002C00D19CE0AA
:104AC00000232F009946DA46237D002B00D138E2DF
:104AD000012B00D13BE20A2B00D135E2049AA17FE1
:104AE0001278914200D176E1A2774222A25C022B99
:104AF00000D137E10B2A00D9C1E0A122A25C934684
:104B0000002A00D16AE1226F002A00D02EE2E26E74
:104B1000002A00D127E2A222A25C0B2A00D9AEE033
:104B20005946A020964A895C225C8A4200D29CE1C8
:104B30006023E15A002900D090E0200003F052FEEB
:104B4000002800D190E0237D002201259346062B0A
:104B500000D19AE0627A120725D5042B00D063E1D8
:104B60003A68236AFA21D31A06939423E25804334D
:104B70009446E6580433E058490070436044079275
:104B80000DF0B4F90121069B884683420ED8A32577
:104B9000635D079A5E43F431B018FF310DF0A6F95A
:104BA000069B834251D85D4600239846666F002ECF
:104BB0000AD03A68236AD21A4023E15E4B005B18A0
:104BC0005B00934200D87AE0237D032B00D195E06F
:104BD000092B00D1D8E0002D00D0A6E1237F627F11
:104BE0000133DBB2E56823779A4200D8DCE0A146C6
:104BF0002C00002C00D067E73D00624F002439688C
:104C0000002904D11AE00C00C968002916D00B7DD8
:104C10000A2B00D09EE12B680A6A9B1AF02BF2D96E
:104C2000002C00D11AE13B688B4200D1A4E1CE6890
:104C3000E6600220FEF7B2FE311EE8D109B0F0BCFA
:104C4000BB46B246A946A046F0BD200003F05CFD7D
:104C50000028A8D1635D01336355A4E7200002F06A
:104C6000D9FE002800D156E1A0230022E254A1324F
:104C7000A35C062B00D966E70133A35463E7012246
:104C800002259346062B00D064E7638BDB0600D534
:104C9000BDE0637A1B0700D585E7666F002E00D163
:104CA000EAE0236A3A685D46D21A00239846402318
:104CB000E15E4B005B185B00934200D984E77068AB
:104CC000A346346800280CD0FFF736FA31000420E0
:104CD000FEF764FE002C0AD02600706834680028B5
:104CE000F2D131000420FEF759FE002CF4D15C46CD
:104CF00000236367237D032B00D069E73B68226AAA
:104D00009B1A282B45D99023E5582000FFF7FEFC7D
:104D10004B46002B00D198E053461B68A34200D1BC
:104D20001EE14A46E368D3604346002B00D07FE093
:104D3000E36826699846237D012B00D10DE121000F
:104D40000220FEF72BFE0023059C2370002D07D0C8
:104D50000D2130004942A8472378002B00D0E1E024
:104D6000444646E7052A00D8C7E601251CE7C046A9
:104D70002CE3002082E300201CE3002080E30020DD
:104D80009382011030E300203B68226A9B1AF02BCB
:104D9000B9D8002DB7D1237F627F0133DBB2E5683C
:104DA00023779A4200D922E70023059A23771370CC
:104DB0008C33E358002B0AD0210020699847059BCB
:104DC0001B78002B00D0ADE0002800D00FE72000BA
:104DD00003F00AFA0BE7A146E4680AE73022A15E75
:104DE0006848228E824202D8013211B221864022C6
:104DF000A25E01258A4200DDA9E6200002F0F4FF50
:104E0000002845D0236F002B3FD0237D9FE63A68D2
:104E1000236AD21A282A00D83FE70023666F9846F3
:104E2000002E00D0C8E66EE7072B00D198E6BAE660
:104E3000238B626A216D0293E38A20000193231D74
:104E40000093230003F09EF872E753461B68A342C9
:104E500000D08EE05246E368136065E73B688B4202
:104E600000D08CE0CE683E60E3E60132D2B222543C
:104E70008A4200D268E65BE65B46002B00D1ADE6D5
:104E80009023E558002398463FE7E36E002BBCD003
:104E9000237D022B14D03C22A35E3E21625EDB10F8
:104EA0009B184222A15C38480A1C0C292AD8D2B28D
:104EB000825C934080221202934221DA4022A35264
:104EC0000023482023866033E15A255A628E0B1C4A
:104ED000A94200D92B1C9BB250005B0885B2191C5B
:104EE000AB4200D2011C4A23E152023BE2520022B3
:104EF0002233E252200003F0A3FB0125237D26E6A6
:104F0000224BDBE70C22D2B2825C93408022120259
:104F10009342D3DBF4E7200003F066F9002800D0C9
:104F2000A2E610E63D00D346C5E59022A558002B29
:104F300000D1EDE60A2B00D1EAE6012B00D0E4E631
:104F4000E6E61348FCF7B8F81248FCF7B5F8124843
:104F5000FCF7B2F81148FCF7AFF81148FCF7ACF8D1
:104F60001048FCF7A9F81048FCF7A6F80F48FCF722
:104F7000A3F80F48FCF7A0F80E48FCF79DF80E4880
:104F8000FCF79AF8FE7F00009C820110FF7F000072
:104F9000B87E0110107F0110E47E01100080011026
:104FA0003C7E0110A87F0110707F01103C7F011032
:104FB000D47F0110308001105880011070B5041E9C
:104FC00016D06068256800280CD0FFF7B5F82100DE
:104FD0000420FEF7E3FC002D0AD02C006068256851
:104FE0000028F2D121000420FEF7D8FC002DF4D1D6
:104FF00070BDC04610B5041E08D04068002801D01E
:10500000FFF79AF821000420FEF7C8FC10BDC04647
:1050100070B5051E0DD00420FEF7A0FC041E06D0BE
:10502000102229000DF056FB6068FFF79BF8200066
:1050300070BD0148FCF740F880800110002800D0C6
:105040000161704710B5002804D0037D012B02D008
:105050008423C15010BD0148FCF72EF89C8001103C
:1050600010B5002804D0037D012B02D09023C1503D
:1050700010BD0148FCF720F8C4800110002802D0C0
:10508000037D012B00D070478161FCE710B500283B
:1050900005D0037D012B03D08C23C150427710BD76
:1050A0000148FCF709F8C046EC80011010B5002853
:1050B00006D0037D012B03D90A2B01D0FFF726FB75
:1050C00010BDC04610B50C1E47D0002848D003685C
:1050D0008B4204D12FE0DA68A24224D01300002BC7
:1050E000F9D10023E360237D002B0FD1638BDA0716
:1050F00029D4E36E002B36D1236F002B36D1636F9A
:10510000002B36D100232375E38210BD0A2BF0D08B
:10511000012BF7D02000FFF7F9FA237D0A2BE8D006
:10512000012BEFD0E2E7E268DA600023E360237D41
:10513000002BEBD1DAE7CB6803600023E360237D2B
:10514000002BE3D1D2E7022213436383200003F054
:105150004BF8237D012BD5D0CBE70748FBF7ACFFFD
:105160000648FBF7A9FF0648FBF7A6FF0548FBF733
:10517000A3FF0548FBF7A0FF0C8101102881011057
:1051800048810110608101107C810110F0B54E460C
:105190004546DE465746E0B505000E0087B00028BC
:1051A00076D0037D012B00D1B2E00A2B00D19DE027
:1051B000026D9146426A9246902282589346026955
:1051C0009046002B6BD1C38A002B00D071E00023E6
:1051D000002605932C6F002C16D0606827680028E5
:1051E0000CD0FEF7A9FF21000420FEF7D7FB002F0B
:1051F0000AD03C00606827680028F2D12100042012
:10520000FEF7CCFB002FF4D1EC6E002C16D06068BA
:10521000276800280CD0FEF78FFF21000420FEF73E
:10522000BDFB002F0AD03C00606827680028F2D13F
:1052300021000420FEF7B2FB002FF4D16C6F002C8C
:1052400016D06068276800280CD0FEF775FF210093
:105250000420FEF7A3FB002F0AD03C0060682768FB
:105260000028F2D121000420FEF798FB002FF4D192
:10527000002E2ED12B7D012B47D029000220FEF7D6
:105280008DFB5B46002B03D00D2140464942D84799
:1052900007B0F0BCBB46B246A946A046F0BDC38AE3
:1052A00029001D480593FFF70DFF01221B4B1A70C3
:1052B00090E71B4A1368834208D1C3681360002338
:1052C000EB6084E7DA68AA421CD01300002BF9D106
:1052D000F5E72B8B52460293059B494601932B1D04
:1052E000009328002B0002F04DFEC3E729000D4873
:1052F000FFF7E8FE2B7D012B07D029000220FEF7E7
:105300004DFBC5E7EA68DA60D9E70748FBF7D4FE4A
:105310000648FBF7D1FEC0461CE3002080E30020D6
:1053200020E3002030E300203C7E01109481011036
:1053300010B50121FFF72AFF10BDC046080010B5C7
:10534000002905D00121FFF721FF0D20404210BDAB
:105350000148FBF7B1FEC046C8810110F0B5C64652
:10536000060000B50220FEF7F9FA041E2AD0A42296
:10537000002120000DF0A8F96423624A6675E2520C
:10538000614B4022A362FF23E372F93BA352E38700
:105390005E4B443223635E4B1B6823625D4B1B787C
:1053A000A3775D4BA3645D4BA35094235C4AE2500A
:1053B0005C4A0433E25009220433E250200080BCEE
:1053C000B846F0BD584B082798461D68002D0AD0F6
:1053D0002800438BED681F42F8D0BB434383FFF79F
:1053E00069F9002DF4D1514B1B68002B11D000211D
:1053F000474A10681A6A821A914201D811001C00AB
:10540000DB68002BF6D1002C03D001212000FFF730
:10541000BDFE0220FEF7A2FA041EA8D143461B6877
:10542000002B16D03A4A0021106802E0DB68002BFE
:1054300009D01A7D092AF9D11A6A821A9142F5D83F
:1054400011001C00F2E7002C03D000212000FFF720
:105450009DFE0220FEF782FA041E00D087E7434635
:105460001B68002B16D02A4A0021106802E0DB6876
:10547000002B09D01A7D082AF9D11A6A821A8A42A9
:10548000F5D311001C00F2E7002C03D0002120000E
:10549000FFF77CFE0220FEF761FA041E00D066E7EB
:1054A00073B2002B2BDB002E22D0320043461B6848
:1054B000013AD2B2002B1BD015490F680021884653
:1054C00007E0186A3A1A90461C000A00DB68002BB5
:1054D00008D0597D8A42F4D8F8D1186A3D1AA845F7
:1054E000F4D8EFE7002C03D001212000FFF74EFE97
:1054F0000220FEF733FA041E00D038E75EE77F2271
:10550000D4E7C046A02D0000A02DA02DFFFF18025B
:105510002CE3002082E300200100A02DC9560010DA
:1055200000DD6D00F82401001CE3002030E30020C2
:1055300010B54020FFF712FF10BDC04630B5040083
:1055400085B0002800D19FE0037D002903D0042B03
:105550000DD0072B0BD0012B00D169E0022B4ED0D0
:10556000002B3BD02000FFF7A5F805B030BDA36F9E
:10557000002B54D0638BDB0600D488E0238B626A57
:10558000216D0293E38A20000193231D00932300E1
:1055900002F0F8FC237D012B04D90A2B02D0200055
:1055A000FFF7B4F83D4A1368A34214D1E3681360CF
:1055B00000230122E3603A4B1A703A4B1B68A34266
:1055C00032D0237D012B24D13748FBF775FDDA68F3
:1055D000A24250D01300002BF9D1E9E7E38A002B57
:1055E00017D0324A1368A34204D14AE0DA68A242D3
:1055F00044D01300002BF9D10023E36009E021001F
:105600002648FFF75FFD0122254B1A70237D012BF1
:10561000DAD002202100FEF7C1F90020A5E7244BD3
:10562000228D9A42A6D19DE702F0ACF800209CE7BB
:10563000204900200D000C354B681B68002B05D05D
:10564000DA6F944212D0DB68002BF9D10431A94201
:10565000F2D121001848FFF735FD237D012B19D029
:1056600003202100FEF79AF900207EE7D867DB6867
:10567000002BE5D1EAE7E268DA6099E7E268DA60F0
:10568000BAE7E3681360B7E70C48FBF715FD0C4871
:10569000FBF712FD0B48FBF70FFDC0461CE3002093
:1056A00080E3002024E300203C7E011020E3002062
:1056B000A02D00008482011028E30020E881011061
:1056C0000882011024820110F0B5C64608001400BB
:1056D00000B500294AD0002A2CD013890A7D012A5E
:1056E00047D0098D264A5B189BB293421ED91300FE
:1056F0009046476A468E234AC56A0385B844311CE2
:10570000964200D9111C424689B24919511A21D535
:10571000ED1B1CD480235B029D422DD245852000C9
:10572000FEF70AFD002080BCB846F0BD9942DED8E5
:105730001A00DDE7002BF5D10B7D012B03D01022E1
:105740004B8B13434B830121FFF7F8FEEBE700235C
:105750004385E4E743850C4B521B9A42DFD9022272
:10576000438B1343438302F03FFDD8E710204042B0
:10577000D9E70648FBF7A0FC0548FBF79DFCC046AF
:10578000A02D0000D0160000670B0000907E0110D5
:10579000747E0110F8B5041E32D00023866F777B2B
:1057A00083678433C558002D0CD0002332002100BC
:1057B0000069A84700280BD00D301ED00520A66731
:1057C0004042F8BD3189FFF713F93000FEF7B4FC11
:1057D000BF0610D5238D0C4A934201D00133238597
:1057E0008423E558002D06D00023002221002069E3
:1057F000A8470D3001D00020E3E70D204042E0E74C
:1058000010204042DDE7C046A02D0000F0B54F4615
:105810004646D646C0B5204D204F2B7801332B701D
:105820001F4B9946012398464B461C68002C1BD001
:1058300008262B78A27F9A421BD04246A377638B1F
:105840001A421ED11E4216D1E3689A46A36F002B5E
:1058500007D0002320003B70FFF79CFF3B78002B14
:10586000E2D15446002CE4D1E0BCBA46B146A84689
:10587000F0BDE468F6E7B34320006383FEF71AFF48
:10588000E2E7022213436383200002F0ADFC03220F
:10589000638B93436383D5E782E3002080E300209A
:1058A0001CE3002010B5FFF7B1FF054A1378013360
:1058B000DBB21370DB0700D410BDFFF7E5F8FBE7A0
:1058C00081E3002030B5040085B0002800D198E0C5
:1058D000037D012B00D16FE01021428B0A434283EC
:1058E000042B36D1A36F002B44D0238B626A216D29
:1058F0000293E38A20000193231D0093230002F00A
:1059000041FB237D012B04D90A2B02D02000FEF796
:10591000FDFE3F4A13689C4218D1E36813600023E0
:105920000122E3603B4B1A703B4B1B689C4229D021
:10593000237D012B33D021000220FEF72FF8002019
:1059400005B030BDDA68944233D01300002BF9D192
:10595000E5E7072BC6D0022B17D00FD8C38A002B40
:10596000E9D02E4A1368984220D1C36813600023FF
:10597000E360E0E72A4B228D9A42B6D12000FEF781
:1059800099FEDDE701F0FEFED9E721002048FFF790
:1059900099FB01221F4B1A70237D012BCBD121488B
:1059A000FBF78AFBDA68944228D01300002BF9D168
:1059B000DDE7E268DA60B2E71B4900200D000C3534
:1059C0004B681B68002B05D0DA6F944211D0DB685E
:1059D000002BF9D104318D42F2D121001348FFF799
:1059E00071FB237D012B0FD021000320FDF7D6FF93
:1059F000A5E7D867DB68002BE6D1EBE7E268DA6061
:105A0000B5E7102040429BE70948FBF755FBC0462D
:105A10001CE3002080E3002024E3002020E300209A
:105A2000A02D00003C7E01108482011028E300209C
:105A30002482011010B5002806D0054B054A1868CD
:105A400012688018186010BD0348FBF735FBC0468C
:105A50009C1100202CE300204082011010B5002A88
:105A600010D000290DD00A8E002A0AD0131C282A33
:105A700000D22823283B1A1C9BB2834200D9021C67
:105A800090B210BD0148FBF717FBC0465C820110C5
:105A900070B504000D00002802D00368002B00D16F
:105AA00070BD1F4A1068002805D00268934226D0B6
:105AB000C0680028F9D11B4B1868002806D023685D
:105AC00002689A4224D0C0680028F9D1002DE7D09E
:105AD0002B68002BE4D0144B1A68002AE0D023680E
